:020000003228A4
:0E000600831203132B088A002A0882000800C8
:1000140003208A110A128000840AAA0A0319AB0A6F
:08002400F003031D0A28080087
:10002C00831203132C08203E840000088700AC0ABE
:10003C000630FB001330FC00AD30FD00FD0B242816
:10004C00FC0B2428FB0B2428000000002C080A3A87
:08005C00031D3128AC0108006E
:100064003F3083120313A0000630A1005B30A200CE
:100074004F30A3006630A4006D30A5007D30A6008B
:100084000730A7007F30A8006730A9008316031744
:100094008801890183128713881383160313870148
:1000A40001308600013083128600870106185B2820
:0600B400162058285C280C
:04400E00F22F000786
:00000001FF
